S31500000000001000200900000000F02BF8224E2349C2
S3150000001000F024F8224B00F01AF8113B002BFADC12
S31500000020012EF3D01F4900F019F81D4B00F00FF810
S31500000030113B002BFADC012EE8D01B4900F00EF82C
S315000000401A4B00F004F8113B002BFADCDEE71848E7
S3150000005001681848014200D1012670471648016020
S31500000060704716480C49016015480168154A114346
S315000000700160154815490160154814490160154885
S315000000801249016014481549016015481549016077
S315000000901548014901607047000000000200000099
S315000000A000D8B8051000000005000000006CDC0256
S315000000B090F00F408000000000F00F4000810440E7
S315000000C038800440803F0000049004400001000096
S315000000D0089004401090044014F00F4016000000F1
S311000000E01CB004400301000094F00F4027
S70500000009F1
