S31500000000001000200900000000F023F81E4E1F49D2
S3150000001000F01CF81E4B00F00DF81E4900F016F813
S315000000201B4B00F007F81C4900F010F81B4B00F0C2
S3150000003001F8EBE71A4801681A48014200D1012687
S315000000400D3B002BF6DC012EE0D070471648016010
S31500000050704716480C49016015480168154A114356
S315000000600160154815490160154814490160154895
S315000000701249016014481549016015481549016087
S3150000008015480149016070470000000002000000A9
S3150000009000D8B8051000000005000000006CDC0266
S315000000A090F00F408000000000F00F4000810440F7
S315000000B038800440803F00000490044000010000A6
S315000000C0089004401090044014F00F401600000001
S311000000D01CB004400301000094F00F4037
S70500000009F1
