S31500000000001000200900000024482449234A234BFD
S31500000010224E00F02AF8224900F024F8214B00F085
S315000000201AF8113B002BFADC012EF4D01E4900F021
S3150000003019F81C4B00F00FF8113B002BFADC012ECF
S31500000040E9D01A4900F00EF8164B00F004F8113BFF
S31500000050002BFADCDFE7164801681648014200D09B
S315000000600126704714480160704714480168144A15
S315000000701143016013481449016014481249016094
S315000000801348114901601348134901601348144984
S31500000090016014480149016070470000000000003B
S315000000A00200000000164E0E1000000011000000B5
S315000000B090F00F408000000000F00F4038800440B0
S315000000C0803F0000049004400001000008900440B6
S315000000D01090044014F00F40160000001CB00440BD
S30D000000E00301000094F00F403B
S70500000009F1
