S31500000000001000200900000025482549244A244BF9
S31500000010234C234D224E224F00F02AF8214900F0AE
S3150000002024F8214B00F01AF8113B002BFADC012EC4
S31500000030F4D01E4900F019F81D4B00F00FF8013BF3
S31500000040002BFADC012EE9D01A4900F00EF8184B05
S3150000005000F004F8013B002BFADCDFE716480168E4
S315000000601648014200D101267047154801607047C5
S3150000007014480168144A1143016014481449016088
S315000000801448134901601448114901601348144982
S315000000900160144814490160144801490160704721
S315000000A00000000002000000110000001000000027
S315000000B0B56AD7000500000090F00F4080000000F0
S315000000C000F00F4038800440803F00000490044058
S315000000D000010000089004401090044014F00F4006
S315000000E0160000001CB004400301000094F00F400D
S70500000009F1
