:020000040000FA
:10000000001000200900000000F003F819E0FDE7EF
:10001000FEE711480168114A114301601048114977
:10002000016011480F49016010480E4901601048F5
:1000300010490160104811490160114811490160DF
:10004000704711480168114801420A4900D07047C1
:100050000F4801607047000038800440803F000076
:1000600004900440000100000890044010900440F7
:1000700014F00F40160000001CB004400301000003
:1000800094F00F400000000090F00F40800000004E
:040090000CF00F4021
:0400000500000009EE
:00000001FF
